:10000000000C00206D810308F99500080D9600088A
:100010002196000835960008499600080000000067
:100020000000000000000000000000005D960008D5
:100030007196000800000000516000083583030835
:10004000398303083D830308418303085D73010876
:100050004983030861A80008319E00085BA00008DE
:1000600089A1000881A20008618303086583030851
:10007000698303086D83030871830308758303088C
:1000800079A30008A1A400088183030885830308DD
:10009000898303088D8303089183030819A6000848
:1000A000998303089D830308A1830308A58303089C
:1000B000A9830308AD830308B1830308B58303084C
:1000C000B9830308BD830308C18303088996000828
:1000D000C9830308CD830308D1830308D5830308AC
:1000E00085A5000859A70008E1830308E5830308F4
:1000F000E9830308ED830308F1830308F58303080C
:10010000F9830308FD8303080184030805840308B9
:10011000098403080D840308118403081584030867
:10012000198403081D840308218403082584030817
:10013000298403082D8403083184030835840308C7
:10014000398403083D840308418403084584030877
:10015000498403084D840308518403085584030827
:10016000598403085D8403086184030865840308D7
:10017000698403086D840308718403087584030887
:10018000798403087D840308DFF8CC0A007870477F
:100190002DE9F74398B002F0D9FF0446DFF8BC0A16
:1001A000856BDFF8BC6A376816E098F81910D8F844
:1001B0001000D8F804208018D7F8C820526990475A
:1001C000002802D0384603F0EBF818A890E80E009B
:1001D000384600F057F83F68B7423CD097F908001E
:1001E0000728F8D00B2807DB0E2805D00F2803D0EE
:1001F000102801D01828EED10628ECD007F1080805
:10020000D8F86000002804D5D4F880100818C8F881
:1002100060004FF0FF313846D7F8CC209269904704
:100220008146B9F1010F05D198F86400D7F8C810DC
:1002300009698847B9F1020FC7D197F90800012869
:10024000B3D1687A0028B0D0A87F0128ADD1384654
:1002500003F0A6F8B9E7D4E91C01002901D1002870
:100260000CD00A208DF8020002208DF80000D4F88E
:100270008000ADF8580000A803F040FF01201BB03B
:10028000BDE8F0832DE9FE4191B0044602A8342177
:1002900004F08AF800212046D4F8CC2092699047D7
:1002A00002284CD104F10C050120A87494F89F0099
:1002B000002844D0DFF8AC794CF250303968461A47
:1002C00000200146CDE9000111A890E80E0020466B
:1002D00000F054F9CDE90001012204F1080102A85F
:1002E00004F065F86A7DE868E16841180DF10900DD
:1002F00004F05DF8082200A9687D02ABC018401C1C
:1003000004F055F8DFF8608938684044697D0931A8
:100310008E420CD2324602A904F049F8687D0930B9
:10032000821B02A83118404604F041F804E0A97D80
:100330004A1C02A904F03BF8204600F00FFA012104
:100340002046D4F8CC2092699047022802D120465A
:1003500003F038F914B0BDE8F08130B587B0044639
:100360000D46CA208DF800002888ADF80100022053
:10037000ADF80300BDF80100001D04F01FF8CDF832
:10038000110002220DF1030104F011F802222946A6
:10039000DDF81100801C04F00AF82A882146DDF8F7
:1003A0001100001D04F003F80020288000A9DFF8E8
:1003B000600D04F02BF807B030BD41F28831081A07
:1003C000322801DA012070470020704780B502F022
:1003D000C9FEDFF8C42DC2E9000101BDDFF8B82D68
:1003E000D2E90001704730B587B00D461446DFF8FA
:1003F000243DCDF8113008220146184603F0D7FFFE
:1004000008222946DDF81100083003F0D0FF012052
:10041000ADF8030009208DF800001020ADF80100B0
:1004200000A9DFF8780D04F027F8002803D00FF2B8
:100430001800C046C046012C04D1DFF8641D082016
:1004400004F050F807B030BD7075744D61696C00F0
:100450002DE9FF4786B0002528460146CDE9000179
:1004600004F07DF804F050F9824604F053F9034695
:100470009AF800000146DFF8C44D04EBC102DDE943
:100480000667C2E90667DDE90867C2E92E67DDE9AC
:100490000889DDE90667B94507D301D8B04504D31B
:1004A000B8EB060669EB070707E0DDE90689DDE939
:1004B0000867B8EB060669EB0707C2E95667DDE98E
:1004C0000889DDE90667B94504D301D8B04501D3F1
:1004D0002A4600E001220A55401C8AF80000C0B2FA
:1004E000142804D128468AF80000012018701878D2
:1004F000002802D19AF8002000E01422D4E95667BF
:100500002B460CE004EBC30CDCE95601B94205D8DC
:1005100001D3B04202D206460F461D465B1C9342F1
:10052000F0DBD4E97E01002901D100280DD08F42F3
:100530000BD801D3864208D2821B61EB07039208D5
:1005400042EA83729B08CDE90023002904D10028E8
:1005500002D1CDE9026705E0DDE90023801A994167
:10056000CDE90201EDB2285D8DF8100002A804F07B
:10057000BFF8C4E97E670AB0BDE8F0872DE9FE4305
:1005800082B0044600200146CDE9000104F0AAF83B
:100590004FF47A72017A002902A90E684F68A2FB13
:1005A000068902FB0799D0E9002306D1B8EB0200C7
:1005B00069EB0301CDE9000105E018EB020049EB0E
:1005C0000301CDE90001D4E93001DDE900238B42CC
:1005D0000DD801D382420AD2DFF8642C00238018A0
:1005E0005941CDE900010FF2380004F023F894F8E6
:1005F0009F0000280AD104F10C00082200A9437DC5
:10060000C068E5684019181803F0D1FEDDE9000163
:10061000C4E93001DDE9000105B0BDE8F083000068
:10062000526576657273652054696D657374616D8A
:10063000700000000020DFF824168A68D26A9268F1
:100640000969C96A8968002903D4012A02DB8A4240
:1006500000DA0120002801D00220704704207047F2
:1006600030B41488651C1580052565541488651CF4
:100670001580635413885C1C1480007A585430BC75
:10068000704732B515461C4621884A1C2280372205
:100690004A5521884A1C2280007A4855022200A926
:1006A0002088401903F083FE2088801C208031BD03
:1006B0002DE9F041054616461F4605F10808069C3F
:1006C000A4B298F81A0004FB00F2D8F80400091844
:1006D0003888801903F06BFE388898F81A10614347
:1006E00011FA80F038803888FFF767FE002803D0C1
:1006F00039463046FFF731FE95F9080016280AD131
:10070000D8F81000D8F80410415C0FF21000BDE8D2
:10071000F04103F08FBFBDE8F08100002323205398
:1007200068616B652025640030B400F110039B7C88
:10073000914203D1006990FBF3F00DE00C461546A1
:1007400003D2281B90FBF3F006E00069001B90FB2E
:10075000F3F095FBF3F1081830BC7047F8B5044688
:1007600003F0FDFE04F110018A7C134694F89F50BB
:10077000002D1BD05B1CDFF8EC4425684CF2503692
:10078000771B9F4205D2DFF8BC3A9A1852192260B3
:1007900001E05A1922602268B24201D1002222608F
:1007A000807B00280CD100208873F1BD8868181860
:1007B00088602269904201D10020886000208873FF
:1007C000F1BD70B582B004460D461E4692B289B2A4
:1007D000FFF7AAFF80B20090069B324629462046CA
:1007E000FFF766FF73BDF8B5044615461E4622693D
:1007F000002D00D11546069F0097FFF7E2FF206904
:10080000854206DA009733462A4600212046FFF744
:10081000D8FFF1BD2DE9F04184B004460F46904663
:10082000A1696069002817D500250A4692B289B2ED
:100830002046FFF779FF064643463A46314689B2DD
:100840002046FFF71EFFA269CDF800803B46114607
:100850002046FFF7C8FF36E0814218DA01250A4634
:1008600092B2014689B22046FFF75EFF0646434634
:100870003A46314689B22046FFF703FFCDF80080A3
:100880003B46A26961692046FFF7ADFF1BE00225E8
:10089000884201D1012607E00A4692B2014689B298
:1008A0002046FFF741FF064643463A46314689B2A5
:1008B0002046FFF7E6FECDF800803B46A26961695D
:1008C0002046FFF77EFFA06B80680290A069019030
:1008D000606900902B46324694F908100FF2080028
:1008E00003F0A8FEBDE8FF815061636B203D2564E5
:1008F00020256420256420256420256420256400AB
:10090000D8480168DFF8400902688A4201D2881A93
:1009100003E04CF25030801A0818914205D1DFF8FC
:100920002C190978002900D100207047F8B5044639
:100930000E46174604F10805A86D012811DAA87DB6
:10094000012832D13B46324601212046FFF799FE6D
:10095000012000903B46324629692046FFF7A8FE59
:1009600023E094F89F00002804D0217A012000F0B1
:10097000AEF820E0A868A97E884216D02A69E96806
:10098000914206D092B289B22046FFF7CDFE0228EE
:1009900006D2E8682969884207D1E86D012804DA9F
:1009A0003A4631462046FFF735FF01233A463146A5
:1009B0002046FFF755FE0020E8602861AB6DEA6D28
:1009C00094F908100FF20C0003F034FEA86DE865EE
:1009D000F1BD0000666C75736820256420256420D5
:1009E00025640000DFF86808016806E091F89F20A0
:1009F000002A01D00A6E4A6609688142F6D1704722
:100A000010B59848026842F21070B2FBF0F1DFF8BE
:100A1000440850F82100831A1F2B08D2DFF8380849
:100A200040F821200FF2540003F004FE12E0101AE7
:100A300000F51C5010301F280CD201290ADBDFF80A
:100A4000180800EB810040F8042C491E0FF240000A
:100A500003F0F0FDDFF8F447207800280DD1FFF710
:100A60004FFF4AF6C871884207D3012020700FF269
:100A70003400BDE8104003F0DDBD10BD42696720C1
:100A8000496E646578203D2025642C2564000000B3
:100A900042696720496E64657832203D2025642CC8
:100AA0002564000042696720627566666572206988
:100AB000732066756C6C00006A48006842F2107121
:100AC000B0FBF1F0401C052800D1002070472DE953
:100AD000F04182B0644D634C002829D00020ADF86D
:100AE000000020684CF25036371AC8228DF80020DA
:100AF0008DF801104019022F0ED23A4600A903F0DA
:100B000056FCC7F10208424600A83918284603F0EF
:100B10004EFCC4F8008006E0022200A903F047FC66
:100B20002068801C20602068B04201D10020206035
:100B3000FFF7E6FE0246DFF8106730684119022031
:100B400001F0F7F9FFF7DCFE2368326801460FF287
:100B5000180003F06FFDDFF80407316801602068BA
:100B60003060BDE8F3810000484946492062617465
:100B70006368204C656E203D2025642C2025642C64
:100B80002025640037480168DFF8BC0601600FF2D9
:100B9000080003F04FBD0000486966692052657384
:100BA00065742025640000000020DFF8A4160A68A0
:100BB00005E092F89F30002B00D0401C12688A425A
:100BC000F7D1C0B2704710B5DFF880462078002812
:100BD0000FD0FFF771FFDFF8801651F82020DFF803
:100BE00068160A600021217001460FF2800003F0B0
:100BF00021FDFFF785FE002803D000210846FFF7FE
:100C000066FF1748016808E091F89F20002A03D08A
:100C100001F160020B6E53600968814211D001F24C
:100C20009F025378002BF7D09378002BECD0002351
:100C300093701A4681F89F200A6601F160025360A2
:100C4000EAE7FFF7CFFE14220021DFF80C06BDE82B
:100C5000104004F07DBA0000BCE901202CBE012048
:100C600090480020884800206058002048494649A4
:100C70002057616B65203D2025642C2025640000F1
:100C800008B42DE9F84104460D46164603F067FC0A
:100C900004F10807D7F85C8002F058FAD0F8800019
:100CA000A8EB0000F865B87D00284DD094F89F00AF
:100CB000012809D1FFF7A4FE0020B875F86D0128BE
:100CC00042DAB86DF8653FE0B87E3969FA68531AC0
:100CD000834205D0002A34D1BA68511A814230D1FA
:100CE00094F90820397E0FF2680003F0A3FC397EE6
:100CF00000291FD094F908200FF26C0003F09AFC31
:100D00003869B97E421892B2F96889B22046FFF775
:100D10000BFD33462A46014689B22046FFF7B1FC57
:100D200000962B463869B97E4218F9682046FFF7CD
:100D30005AFD06E04FF0FF30F860FFF74FFBC4E9C3
:100D40002A012046FFF70AFDBDE8F1015DF808FB26
:100D500073757370656E64206669666F2066756C66
:100D60006C2025642025640073757370656E6420A3
:100D70006669666F2066756C6C20322025642025BC
:100D80006400000008B42DE9F84104460F461546FA
:100D900003F0E5FB04F10806D6F85C8002F0D6F912
:100DA000D0F88000A8EB0000F06594F89F000028C0
:100DB0000AD0F06D012880F29480FFF713FE002125
:100DC0000846FFF784FE8CE0F06810F1010F0DD1AA
:100DD000B07D002802D02046FFF7C0FC2A463946E5
:100DE0002046FFF717FD3069F0607AE0F06D0128CA
:100DF00055DAB06DF065306BD0F80C8094F908309E
:100E00008268B16D0FF2E40003F014FC94F908005D
:100E10000C2826D0B068B17E90FBF1F0B16D91FB4B
:100E2000F8F1814202DB4FF0FF30F060B07D002826
:100E300008D02046FFF792FC2A4639462046FFF7A5
:100E4000E9FC29E0306E002826D407A890E80E00BF
:100E50002046FFF793FB2A4639462046FFF7DAFC87
:100E60001AE004F29F0898F81900012814D1D4F868
:100E7000BC00B168B27E91FBF2F1884202D14FF022
:100E8000FF30F0602A4639462046FFF7C3FC0020B9
:100E9000C4F8BC0088F819003069F06021E094F9CA
:100EA00008000C2817D1D4F8BC00B168B27E91FBC1
:100EB000F2F188420FD14FF0FF30F0602A463946F8
:100EC0002046FFF7A7FC0020C4F8BC0004F19F00F7
:100ED0000021417605E0B07D002802D02046FFF7D2
:100EE0003DFCBDE8F1015DF808FB00006669666F36
:100EF0002066756C6C3320256420256420256400F1
:100F000008B4FCB504460D46164603F028FB074618
:100F100002F01CF9B87B00280DD007A881B0694603
:100F20000CC80CC102680A6008BC3246294620463B
:100F3000FFF7A6FE0FE0B87B00280CD107A881B010
:100F400069460CC80CC102680A6008BC32462946D2
:100F50002046FFF717FFF3BC5DF808FBF8B5054620
:100F60000E46174603F0FBFA05F10804A17D00299F
:100F70005BD095F90810807A002837D0072905D072
:100F80000D2903D01A2901D01B291AD13B4632461C
:100F900001212846FFF775FB012000903B463246B1
:100FA00021692846FFF784FB627895F908100FF253
:100FB0007C0003F03FFB2846FFF7D0FB2069E06090
:100FC000F1BD05F28A00817D002909D0018B226BD9
:100FD000D2685143A165E1650121C1754175F1BD3B
:100FE0002846FFF7BBFB2069E060F1BD092909D164
:100FF00095F88A10012905D10FF24000BDE8F440B0
:1010000003F018BB3B46324601212846FFF739FB67
:10101000012000903B46324621692846FFF748FBF5
:101020002846FFF79BFB2069E060F1BD415020534B
:10103000757320256420256400000000233E6C7534
:10104000785F7361742025640000000008B4FCB56B
:1010500004460E46154604F10807B87D002815D051
:1010600094F89F00002805D107A890E80E002046BC
:10107000FFF784FA94F908000C2807D1012084F8BE
:10108000B800D4F8BC00401CC4F8BC00B86D0128FE
:101090000DDB07A881B069460CC80CC102680A6064
:1010A00008BC2A4631462046FFF72AFF04E02A46BC
:1010B00031462046FFF752FFF3BC5DF808FBF8B558
:1010C00004460D46DFF8140E466896F88B0001289A
:1010D0001DD1002086F88B002888411C298008211A
:1010E00001550020ADF8000007460EE006EB870032
:1010F000806FADF80000022200A92888001903F0D3
:1011000056F92888801C28807F1C032FEEDBF1BD58
:10111000BC6C012074E7012038B504460D4603F08D
:101120001EFAC17B01290CD10021C1732888411C02
:101130002980452101550FF20C00BDE8324003F033
:1011400079BA31BD47797220466972737420436160
:101150006C0000000CB4F0B583B004460D46FFF7F8
:10116000AEFF29462046FFF7D7FF394E37680DE01E
:1011700008A881B069460CC80CC102680A6008BCA6
:101180002A4621463846FFF761FF3F68B742EFD154
:10119000F7BC5DF80CFB0000D8E80120A06C012032
:1011A000405D01202DE9F04186B004460D46DFF890
:1011B0002C6DF76907F10C0898F81510D8F80C0099
:1011C000FA688018D7F8C82052699047002812D0D2
:1011D000012088F81200787A00280CD002A881B08B
:1011E00069460CC80CC102680A6008BC2A46214640
:1011F0003846FFF72BFFB66906F10C07797DF868D2
:10120000F2688018D6F8C82052699047002811D09B
:101210000120B874707A00280CD002A881B0694609
:101220000CC80CC102680A6008BC2A462146304638
:10123000FFF70CFF012006B0BDE8F081D8C0012007
:1012400020A10700B13CFFFF84480020484800204F
:101250009048002070480020B01B01208C480020DE
:101260000288D21C02800A80704780B50B889B1AC6
:10127000ADF80030BDF80030002B09D01018012166
:1012800000F8031C022200A9801E03F090F801BDA3
:101290000888C01E088001BD2DE9F04FADF68C2DE9
:1012A00004460D4601F052FF064603F058F9804609
:1012B00010A840F6482103F077F800208DF80200CE
:1012C00006A8282103F070F801A8142103F06CF897
:1012D0000020ADF800000746D6E91C01002902D124
:1012E000002800F0838598F9090004F002FC00282A
:1012F00000F07C8500A92846FFF7B2FFB8461CE045
:10130000D6E91C01424604F06BFE00F0010011F02A
:10131000000101D100280ED0C8EB0810DFF8C01B77
:1013200001EB800292F90300012804D10DF10201C2
:1013300010A8526B904708F10108B8F1410FDFDBAC
:10134000BA461BE029884A1C2A80807808552888DC
:10135000FFF733F800280DD0BDF8002029462046BD
:10136000FFF783FF29462046FEF7F7FF00A928462E
:10137000FFF776FF0AF1010A4FFA8AFA9DF8020098
:10138000824580F22B852988481C288040F249102C
:1013900010FB0AF010AA825C0A5529884A1C2A8090
:1013A00010AA8618707808552988481C2880701C57
:1013B00042780A55417803292AD0092900F09D81F5
:1013C0000C2900F078811A2900F094821B2900F082
:1013D000A7811C2900F0BE821D2900F0B1811E29C1
:1013E00000F0A982262900F0E1822C2900F00D836B
:1013F0002F2900F0EA82302900F06183312900F0C2
:101400008C83342900F0EA833B2900F0908499E72B
:101410007178032904D129884A1C2A8082780A55C8
:1014200029884A1C2A80C2780A55C178C0290FD160
:1014300006F22708B8F82E20D8F8301028880019AE
:1014400002F0B5FF2888B8F82E10081828807EE72B
:101450000846E0284AD106F20506002035E056F895
:1014600020100A0222F0FF12090A01F0FF111143B5
:1014700046F820104FEA314146F8201006EB800173
:101480004A68130223F0FF13120A02F0FF121A43F4
:101490004A604FEA32424A608A68130223F0FF131F
:1014A000120A02F0FF121A438A604FEA32428A603F
:1014B000CA68130223F0FF13120A02F0FF121A4344
:1014C000CA604FEA3242CA60001D1428C7DB5021AF
:1014D0000FF6201003F0AEF850223146288800198C
:1014E00002F065FF28885030288030E7791C00061C
:1014F00047D401A8321D52783A54C9B2B2790A547D
:10150000491CC9B200220A544A1C06F20601D2B292
:101510004B781354521CF389D2B21F0A1754521C31
:10152000D2B21354521C06F20E03D2B29F78175453
:10153000521CD2B2DB781354521CD2B2B37C135477
:10154000521CD2B2F37C1354521CD2B28B78135477
:10155000521CD2B2C9781154511CC9B2B27A0A5481
:10156000491CC9B2F27A0A544F1CFFB23A4601A98B
:101570002888001902F01BFF288850FA87F028807D
:10158000E5E6D6F8052006A8130C3B54C9B2130AA9
:101590000B54491CC9B20A54491CD6F80920C9B2D7
:1015A000130C0B54491CC9B2130A0B54491CC9B281
:1015B0000A54491CD6F80D20C9B2130C0B54491C0F
:1015C000C9B2130A0B54491CC9B20A54491CD6F8B3
:1015D0001120C9B2130C0B54491CC9B2130A0B5485
:1015E000491CC9B20A54491CD6F82720C9B2130CA9
:1015F0000B54491CC9B2130A0B54491CC9B20A54F2
:10160000491C06F22708C9B298F804200A54491C5C
:10161000C9B298F805200A54491CB8F80620C9B286
:10162000130A0B54491CC9B20A54491CC9B298F890
:1016300008200A54491CD6F81520C9B2130C0B54C3
:10164000491CC9B2130A0B54491CC9B20A54491C9B
:10165000D6F81920C9B2130C0B54491CC9B2130A8D
:101660000B54491CC9B20A54491CD6F81D20C9B2F2
:10167000130C0B54491CC9B2130A0B54491CC9B2B0
:101680000A54491CD6F82120C9B2130C0B54491C2A
:10169000C9B2130A0B54491CC9B20A544F1CFFB2F9
:1016A0003A4606A92888001902F081FE288850FAD7
:1016B00087F028804BE6F11CB1F90300C0F3072244
:1016C00042EA0020A1F80300B1F90700C0F30722A5
:1016D00042EA0020A1F80700B1F90500C0F3072293
:1016E00042EA0020A1F8050009222888001902F02A
:1016F0005EFE28880930288029E629880B46727802
:10170000032A08D10222F11C181902F050FE288881
:10171000801C28801BE6491C29808078185516E615
:1017200029884A1C2A8080780855707805287FF41B
:101730000EAE2888411C2980311D4978015506E6E6
:1017400006F103087078012840F0C4802888411C05
:10175000298098F8041001554FF00009A1E0C9EB69
:10176000491000EB080BDBF81800010221F0FF1113
:10177000000A00F0FF100843CBF818004FEA304091
:10178000CBF8180004220BF118012888001902F088
:101790000EFE2888001D2880DBF80800010221F0D9
:1017A000FF11001200F0FF100843CBF80800C0F34F
:1017B0000F4141EA0040CBF8080004220BF1080178
:1017C0002888001902F0F3FD2888001D2880DBF826
:1017D0000C00010221F0FF11001200F0FF1008437D
:1017E000CBF80C00C0F30F4141EA0040CBF80C00ED
:1017F00004220BF10C012888001902F0D8FD28887A
:10180000001D2880DBF81000010221F0FF110012FA
:1018100000F0FF100843CBF81000C0F30F4141EA7D
:101820000040CBF8100004220BF1100128880019A9
:1018300002F0BDFD2888001D2880DBF81C00010295
:1018400021F0FF11000A00F0FF100843CBF81C0044
:101850004FEA3040CBF81C0004220BF11C01288811
:10186000001902F0A4FD2888001D2880BBF816008E
:10187000010A41EA0020ABF8160002220BF1160122
:101880002888001902F093FD2888801C2880411CBC
:10189000298080B2DBF82010015509F101095FFAB7
:1018A00089F998F804008145FFF659AFB6F843214D
:1018B000D6F845112888001902F079FD2888B6F875
:1018C000431108182880B6F843110FF2385002F07F
:1018D000B1FE3CE505287FF43AAD2888411C2980FB
:1018E00098F8021001552888411C298098F80310A7
:1018F00001552CE5F11C7078032804D12888421C7E
:101900002A80B27A0255D1F80100020222F0FF12B9
:10191000000A00F0FF101043C1F801004FEA304008
:10192000C1F8010007222888001902F040FD28882C
:10193000C01D28800BE5F11C0888020A42EA00203D
:10194000088002222888001902F031FD2888801CB6
:101950002880FCE4F11C7278012A7FF4F8AC8078CE
:10196000012815D12888421C2A8009780155B2889F
:10197000D6F806102888001902F019FD2888B188C9
:1019800008182880B1880FF2904002F053FEDEE480
:1019900002287FF4DCAC2888421C2A800A78025591
:1019A0002888421C2A80C9790155D0E4F11C088896
:1019B000020A42EA0020088002222888001902F068
:1019C000F6FC2888801C2880C1E4F01C29884A1C69
:1019D0002A8001220A5529884A1C2A8005220A5594
:1019E00029884A1C2A80C1220A5529884A1C2A8033
:1019F00042790A5529884A1C2A8042780A55298842
:101A00004A1C2A8080780855A1E4F61C29880B46D8
:101A10003078020727D5481C288030781855288848
:101A2000411C2980317A01552888411C2980717A0E
:101A30000155D6F80A00010221F0FF11000A00F05A
:101A4000FF100843C6F80A004FEA3040C6F80A0003
:101A5000042206F10A012888001902F0A8FC28884F
:101A6000001D288073E440071ED5481C288030786C
:101A700018552888411C2980717801557068010229
:101A800021F0FF11000A00F0FF10084370604FEAD8
:101A9000304070600422311D2888001902F087FC54
:101AA0002888001D288052E47288D6F80E10181974
:101AB00002F07DFC288871880818288047E4F61C0D
:101AC0003068010221F0FF11001200F0FF100843FE
:101AD0003060011441EA0040306004223146288819
:101AE000001902F064FC2888001D2880706801023B
:101AF00021F0FF11001200F0FF1008437060011484
:101B000041EA004070600422311D2888001902F06B
:101B10004EFC2888001D288019E4F61C306801025C
:101B200021F0FF11001200F0FF1008433060C0F3F5
:101B30000F4141EA004030600422314628880019F4
:101B400002F035FC2888001D28807068010221F011
:101B5000FF11001200F0FF1008437060C0F30F4146
:101B600041EA004070600422311D2888001902F00B
:101B70001EFC2888001D2880B068010221F0FF119A
:101B8000001200F0FF100843B060C0F30F4141EABB
:101B90000040B060042206F108012888001902F014
:101BA00006FC2888001D2880F068010221F0FF1142
:101BB000001200F0FF100843F060C0F30F4141EA4B
:101BC0000040F060042206F10C012888001902F0A0
:101BD000EEFB2888001D2880FFF7B9BBF61C306893
:101BE000010221F0FF11001200F0FF1008433060E5
:101BF000011441EA0040306004223146288800196F
:101C000002F0D5FB2888001D28807068010221F0B1
:101C1000FF11001200F0FF1008437060011441EA48
:101C2000004070600422311D2888001902F0BFFBBB
:101C30002888001D2880B068010221F0FF110012E1
:101C400000F0FF100843B060011441EA0040B060AA
:101C5000042206F108012888001902F0A8FB288850
:101C6000001D2880F2683369F06831691B0243EA7D
:101C70001263120222F0FF1223F0FF13000A40EA5F
:101C80000160090A00F0FF1001F0FF111043194331
:101C9000F0603161D6F80C80D6F81090F0683169A8
:101CA0004FEA094949EA1849DFF86826134602EA6B
:101CB000084209EA03039046000C40EA01404FF64F
:101CC000FF7210404246104353EA1141F060316107
:101CD000F2683369F06831691346084600211943F8
:101CE000F0603161F0683169082206F10C01288842
:101CF000001902F05CFB2888083028807069010216
:101D000021F0FF11001200F0FF1008437061011470
:101D100041EA00407061042206F11401288800198C
:101D200002F045FB2888001D2880FFF710BBF61C39
:101D30002888411C298031780155D6F8010001021C
:101D400021F0FF11001200F0FF100843C6F8010057
:101D5000C0F30F4141EA0040C6F801000422711CA3
:101D60002888001902F023FB2888001D2880D6F857
:101D70000500010221F0FF11001200F0FF100843DE
:101D8000C6F80500C0F30F4141EA0040C6F805005F
:101D90000422711D2888001902F009FB2888001D03
:101DA0002880D6F80900010221F0FF11001200F08E
:101DB000FF100843C6F80900C0F30F4141EA004094
:101DC000C6F80900042206F109012888001902F06A
:101DD000EEFA2888001D2880FFF7B9BABDF8002068
:101DE00029462046FFF741FA03F0B1FE0DF68C2D8F
:101DF000BDE8F08F50442053462053656E7425642F
:101E0000000000004F4A483A204154424420736980
:101E10007A653A20256400004F4A483A20415044F0
:101E2000522073697A653A20256400002DE9F0415B
:101E300005460E4602F093FB0746DFF8DC442078A7
:101E4000401C20706078F021084202D0992004F0F4
:101E5000EDF804F061F96078401C607097F81C8020
:101E6000B8F1000F27D03088404480B2FEF7A5FAC1
:101E7000002803D031462846FEF76FFA3088411C0F
:101E80003180032141553088411C318000F80580A4
:101E9000424607F11D013088401902F088FA308867
:101EA000404430804FF4FA72002107F11D0003F026
:101EB0004FF9002038776078F021084202D099204D
:101EC00004F0B4F86078401E6070C0B2002801D100
:101ED00004F01CF9BDE8F04104F008BC2CBE012060
:101EE000D480012038B504460D4602F038FB817AD3
:101EF000002909D1417B002906D129884A1C2A8062
:101F000006220A550121417331BD38B504460D46FC
:101F1000288800280CD02046FFF788FF2946204655
:101F2000FFF7E0FF29462046BDE83440FEF715BA2A
:101F300031BD14B585B0049101A9002213461446A1
:101F40001CC10A21ADF8001004218DF804108DF891
:101F500005000A4605A90DF1060002F028FA042240
:101F600004A90DF10A0002F022FA0598002803D016
:101F700000A901A8FEF7F1F906B010BD80B502F086
:101F8000EEFA4FF4967102F0ADFD07208DF80200D5
:101F90000120ADF8000000A90DF10200FEF7DDF907
:101FA00001BD00B597B000A85C2102F0FDF900204A
:101FB000ADF858000DF101000B2141700021817036
:101FC000C17008468DF800003F208DF8010000A880
:101FD00002F094F80FF2080002F02CFB17B000BDDD
:101FE00053746172742046697273742063616C006B
:101FF00000B597B000A85C2102F0D6F90020ADF83A
:1020000058000DF101000B21417000218170C17059
:1020100001208DF800003F208DF8010000A802F09B
:102020006DF80FF20C0002F005FB17B000BD0000C8
:10203000456E642046697273742063616C00000011
:102040002DE9F04383B005460F46904602F087FA2B
:1020500081460026D5F81100041D28780146012983
:1020600000F087800F293AD035294BD0362940D04F
:10207000402950D07F2937D0802900F0C78081299E
:1020800000F0CE80822900F0CB80852900F0C88046
:10209000862900F0C580882900F0C2808A2900F0D6
:1020A000C7808B2900F0E2808C2900F0EE808D291A
:1020B00000F0F980DD2900F00381DF2900F01781AD
:1020C000F0292DD0F4293ED0F62947D0F82900F088
:1020D0008680F92952D0FF2900F0EA809DE099F826
:1020E0001A002070012099E099F812022070012056
:1020F00094E005F09BF815220146204602F057F9BE
:1021000001208BE0012006F0D6FF304606F0D7FF15
:102110000120207082E0204606F0F0FA01207DE0E8
:1021200004227E49204602F042F907F092FF00287F
:1021300004D109F01FF8012007F087FF012009F002
:10214000D3FE01206AE0484602F07AFC082209F139
:102150001001204602F02BF901205FE00322214606
:1021600030466F4B9B68D3F8C8301B6A98470120F4
:1021700054E020460AF024F801204FE0B5F80300AF
:10218000C008D5F80D204FF4FA6111FB0021654E0F
:1021900065480068801982421BD106F543405030E3
:1021A000814201D3614A5118471AB5F8012097427C
:1021B0000BDA3A46204602F0FAF8B5F80100C21BE5
:1021C0003146381902F0F3F88FE0204602F0EFF8BC
:1021D0008BE0B5F80120204602F0E9F885E03046B2
:1021E000ADF804000120697B012900D1032009F02A
:1021F0006BF909F0A4F9ADF8040009F0B7F902226F
:1022000001A9204602F0D3F8012007E0D5F80D001F
:1022100020702146304601F07EFA3046BDE8FE834C
:1022200031462170214600F07F0001F074FAF4E796
:10223000012020703A4845683746287F002801D1A0
:102240003046EBE7687A002804D1D5F8C80040682A
:10225000804707462046D5F8C810C9698847002F2F
:10226000DBD0D5F8C80080688047D6E70120B5F8F4
:102270000310C1F3C101091D884040F00200207025
:102280002146012001F047FAC7E799F800002070C5
:102290000120607099F80500A07099F80600E070C0
:1022A00001202071BAE7204609F09EFF0646B4E7F8
:1022B00004F10802211D204609F0BEFE0120ADE711
:1022C000687B174951F82050687A00280BD04246A5
:1022D00039462846FEF72AFB1549082002F002F984
:1022E0000120207001E030462070012096E7687BD5
:1022F0000B4951F82050286995F8221090FBF1F015
:10230000401E0090042200A9204602F050F801204F
:1023100084E700000000FFFF984701207C4901206E
:102320002CBE0120605800208C480020B03CFFFFEC
:10233000405D01202DE9F041B4B0064602F00FF9EE
:10234000054600F003FF8046D6F81100041D3078E2
:10235000002101914FF0FF3118910F4601460929E4
:1023600000F0A686312900F05981322900F0608101
:10237000332900F06C81342900F07381372978D03B
:10238000432900F08B86442900F08D867D2900F0DA
:10239000AC80A12900F08181A22900F0CD81A4297F
:1023A00000F0D881A52900F08080A62900F0838064
:1023B000B12900F03584B22900F00C86B82900F06C
:1023C000E481C12900F00582CD2900F0A680CE2944
:1023D00000F0BB80D02930D0D12928D0D22931D0EB
:1023E000D32935D0D4293AD0D6294ED0D7294CD0AC
:1023F000D82952D0D92950D0EC2900F08080F12979
:102400005FD0F22900F0BA80F52900F0DB80F729CF
:1024100000F0F080FA2900F02B86FB2900F02B86D3
:10242000FD2900F0DB80FE2900F02F86F2E000217C
:10243000284602F064FB0120EDE0002009F054FD85
:102440000120E8E00121284602F059FB0120E2E0EA
:102450000020A872A873FEF7B6FB0120DBE0012084
:10246000A872002068730120A87302F059F90120B6
:10247000D1E0002221461046DFF84C3C1B68D3F81F
:10248000C8301B6A98470120C5E0D62801D1012039
:1024900000E00020E8720120BDE0D92801D1012030
:1024A00000E0002028730120B5E0D6F8110009F003
:1024B000B4FF0120AFE0D6F811000AF0E3F80120E4
:1024C000A9E000200DE000EB0801025D81F8842006
:1024D000022805D108F18401025DCA70025D0A710B
:1024E000401C0328EFDB012095E0207802F088FAF9
:1024F00008F18401487088F8840001208BE023787B
:1025000040F61112DFF8C41BDFF8C40B02F092F89A
:10251000207806F0BDFB01207DE0002511E0DFF80A
:10252000A80B466806EB8506022204EB450106F17E
:10253000780001F03CFFB16FDFF8980B02F07AF8F9
:102540006D1C032DEBDB012065E0002512E0DFF8B8
:10255000780B066806EB4506022204EB450106F1FE
:10256000700001F024FFB6F97010DFF86C0B02F078
:1025700061F86D1C032DEADB01204CE0D5E9040174
:1025800000F0800011F0000103D1002801D10120EA
:1025900041E008F184012078627812EB0020C880C5
:1025A000A078E27812EB0020088104212046DFF8B1
:1025B000182BD269D2F8C82092699047002829D0F8
:1025C000012028E0032221460120DFF8FC3A9B6825
:1025D000D3F8C8301B6A984701201CE01B22214613
:1025E0000720DFF8E43A9B68D3F8C8301B6A9847A5
:1025F000012010E0DFF8D00A8669D6F8C8008068AC
:102600008047002806D0012221460520D6F8C83090
:102610001B6A9847002034B0BDE8F08106F053FDF6
:10262000012801D10120F6E7204606F0C3FCF1E7BE
:1026300006F049FD012801D10120ECE7204606F013
:10264000E6FC20780028E5D006F01EFDE2E706F063
:102650003AFD012801D10120DDE7207806F01BFDBD
:10266000D8E706F030FD012801D10120D3E7DFF8DB
:102670006C0A01F0DFFF002006F01DFD012006F0CE
:10268000F3FB04F0A6FF012006F019FD207806F008
:102690001DFD06F053FC0120BDE794F90050042213
:1026A000611C01A801F083FEB6F80100062806DBD4
:1026B0000422611D18A801F07AFE94F909702846D9
:1026C000DFF8041A042802D10A690023937251F832
:1026D000206000F03BFDD0E91C23C2F3401800F05D
:1026E00035FDD0E91C23C2F38020804400F02EFD8C
:1026F000D0E91C23C2F3800000EB080296F9080021
:10270000072804D1717A002901D0002A04D01828A2
:1027100009D1707A002806D0717ADFF8C40901F077
:1027200089FF012077E70097189B0022019928462E
:1027300001F08EF820706DE794F900500422611CBE
:1027400001A801F034FE00231A460199284601F041
:10275000DDF860E794F900500422611C01A801F043
:1027600026FEB6F80100062806DB0422611D18A823
:1027700001F01DFE94F909700097189B0022019941
:10278000284601F025F9207044E720780146032906
:1027900006D01A2912D02C2910D03A290ED011E0D7
:1027A00060780DF109025070012805D1A0788DF8EC
:1027B0000B00204601F042FC01202CE7204601F0EE
:1027C0003DFCF9E794F9011040B20020C046C0B2C8
:1027D00021E720780146491E51D00D390DD0C91E80
:1027E00055D0491E032921D9091F00F0A680491E92
:1027F00000F0EB8019393AD0FAE10E208DF808008C
:1028000060780DF109025070A1788DF80B10E27814
:102810000DF10B035A700023ADF80D3052B249B2DE
:1028200040B202F0BDF901F007FCE1E18DF80800CB
:102830000146122903D10DF1090062784270132973
:1028400002D160788DF80B00142903D10DF10B0033
:1028500062784270152903D10DF109006178417049
:1028600062782178DFF87C0801F0E4FEC0E13020D6
:102870008DF808000DF1090061784170B8E1012080
:102880008DF808000DF10B0061784170B0E10DF199
:10289000090061784170A0788DF80B000DF10B00F4
:1028A000E178417020798DF80D00002802D00128D0
:1028B0001FD030E06079A179090401EB0060E17973
:1028C00000EB0120217A4018CDF80E000DF10E0624
:1028D000607AA17A11EB0020B080E07A217B11EBC5
:1028E0000020F080607BA17B11EB0020ADF816008A
:1028F00011E06079A17911EB0020ADF80E000DF127
:102900000E06E079217A11EB00207080607AA17ABE
:1029100011EB0020B08019A80DF10A010E220AF077
:1029200089F819A80FC802F074FA02F0D9FA012840
:1029300040F05E8101F0CAFB5AE16078A178090499
:1029400001EB0060E17800EB012021794018CDF81F
:102950000A006079A179090401EB0060E17900EBDC
:102960000120217A4018CDF80E00607AA17A09047E
:1029700001EB0060E17A00EB0120217B40180DF1B2
:102980000E014860607BADF816000DF11700A17BC9
:102990004170E17B8170217CC170617C0171A07C00
:1029A000E17C11EB002000B20146ADF81C1007A934
:1029B000227D00EB0220627D80184880A07D087196
:1029C0000DF10A0002F0AEFA12E160788DF809000C
:1029D0001D283ED10DF10E06A1787171A178012953
:1029E0000DD1E178227912EB0121ADF80A1089B2FC
:1029F0000A460146DFF8F00601F01CFEF8E0022965
:102A00000BD1E078217911EB0021ADF80C1089B2DF
:102A1000DFF8D80601F00EFEEAE003290AD1E078DB
:102A2000217911EB0021F18089B2DFF8C40601F0B1
:102A300001FEDDE0042940F0DB80E078217911EB34
:102A40000021ADF8161089B2DFF8A80601F0F2FDFA
:102A5000CEE0032828D1A1780DF15A056970DFF87E
:102A6000980601F0E7FD6878012816D100201428A7
:102A700080F2BE8004EB8001CA780B791B0403EB63
:102A800002624B7902EB03228979511802AA02EB08
:102A90008002C2F80210401CE9E7022840F0A8803A
:102AA000E0788DF85A00A3E01C2827D1A0788DF893
:102AB0000D00A078012808D1E1780DF109025170CC
:102AC000DFF8380601F0B6FD92E0022807D1E17880
:102AD0008DF80B10DFF8280601F0ACFD88E0032824
:102AE00000F08680052840F08380E1780DF10B032B
:102AF0005970DFF8100601F09DFD79E02C2830D1E7
:102B00000DF10E00A1788171A078012803D1E07841
:102B10008DF80E006CE0022806D1E078217911EBE7
:102B20000020ADF8150063E0032806D1E078217994
:102B300011EB0020ADF817005AE0042807D1E07827
:102B4000217911EB00200DF11701488050E0052894
:102B50004ED1E078217911EB00200DF1170188802A
:102B600046E0372803D120460AF0E4F840E0302858
:102B700018D1A0788DF80B00A078012809D1E07851
:102B8000022802D10BF0C3F832E00DF109014870C0
:102B90002EE002282CD1B6F80110E01C0BF0BBF897
:102BA000012038E5342823D10DF10E00A178017100
:102BB000A078012817D10DF10A00E17822791204DA
:102BC00002EB0161627901EB0221A279891800EE22
:102BD000101AB8EEC00ADFED9F0A80EE200A10EE50
:102BE000101A016004E0022802D1E078CDF80E004E
:102BF00006208DF8740020788DF875000DF17700AF
:102C000002A9552209F016FF0DF175000B21417044
:102C10000020ADF8CC001DA801F070FAC0B2FAE4B3
:102C200020780146412905DBDFF8DC0401F002FDD4
:102C30000020F0E4C1EB0112DFF8D01401EB8201B7
:102C4000897E012940F09281014603292ED0062970
:102C50006BD0092931D00C294BD00D2957D0192917
:102C600000F097801A296ED01B2900F0A7801C293C
:102C700000F0E3801D2900F0B9801E2900F0EC80EF
:102C8000262900F0F780272900F002812C2900F086
:102C900027812D2900F03D812F2900F04F81302917
:102CA00000F04581342900F055815AE10322611C6E
:102CB0000DF10A0001F07BFB58E10722611C0DF1C8
:102CC0000A0001F074FBBDF80A00010A41EA002085
:102CD000ADF80A00BDF80C00010A41EA0020ADF889
:102CE0000C00BDF80E00010A41EA0020ADF80E000C
:102CF0003CE10322611C0DF10A0001F058FBBDF814
:102D00000B00010A41EA0020ADF80B002EE103227E
:102D1000611C0DF10A0001F04AFBBDF80B00010A2D
:102D200041EA0020ADF80B0020E10122611C0DF109
:102D30000A0001F03CFB0DF109004178DFF8D003F7
:102D400001F078FC12E10B22611C0DF10A0001F088
:102D50002EFBDDF80B00010221F0FF11000A00F04C
:102D6000FF100843CDF80B004FEA3040CDF80B00C0
:102D70000DF10E067088010A41EA002070800023E0
:102D800096F9062096F9051096F9040001F008FF5F
:102D9000ECE00622611C0DF10A0001F008FBBDF811
:102DA0000A00010A41EA0020ADF80A00BDF80E0051
:102DB000010A41EA0020ADF80E00D7E00422611CB0
:102DC0000DF10A0001F0F3FABDF80A00010A41EA28
:102DD0000020ADF80A00BDF80C00010A41EA00200D
:102DE000ADF80C00CB4801F025FCBFE00922611CC6
:102DF0000DF10A0001F0DBFABDF80A00010A41EA10
:102E00000020ADF80A00BDF80C00010A41EA0020DC
:102E1000ADF80C00BDF80E00010A41EA0020ADF843
:102E20000E000DF10E06002396F9042096F903100A
:102E300096F9020001F0B4FE98E00DF10900617806
:102E40004170A0788DF80B00A2786178B24801F04B
:102E5000F1FB8BE000401C460322611C0DF10A00CF
:102E600001F0A5FABDF80B00010A41EA0020ADF817
:102E70000B007BE00522611C0DF10A0001F097FABE
:102E8000BDF80B00010A41EA0020ADF80B006DE02F
:102E90000A22611C0DF10A0001F089FABDF90A004D
:102EA000C0F3072141EA0020ADF80A00BDF90C008B
:102EB000C0F3072141EA0020ADF80C00BDF90E0077
:102EC000C0F3072141EA0020ADF80E000DF10E0617
:102ED000B6F90200C0F3072141EA0020708045E006
:102EE0000822611C0DF10A0001F061FABDF80C0026
:102EF000010A41EA0020ADF80C000DF10E06002396
:102F000096F9032096F9021096F9010001F048FEA7
:102F10002CE00222611C0DF10A0001F048FABDF814
:102F20000A00010A41EA0020ADF80A001EE0022270
:102F3000611C0DF10A0001F03AFA17E00DF10900E9
:102F4000E178417020798DF80B000DF10B0061796B
:102F500041700BE00922611C0DF10A0001F027FA13
:102F600004E08DF8080060788DF8090020780146AB
:102F7000052908D1694801210170687A002810D11B
:102F80000846FFF748BB18290BD18DF80800607878
:102F90008DF809000DF10900A1784170E0788DF8F5
:102FA0000B0000208DF8740020788DF875000DF16D
:102FB000770002A9552209F03DFD0DF175000B21A6
:102FC00041700020ADF8CC001DA801F097F8C0B208
:102FD000FFF721BB20780146412906DB0FF24010A4
:102FE00001F028FB0020FFF716BB052905D14B484F
:102FF000002101700120FFF70EBB1A291CD1082205
:10300000611C0DF10A0001F0D2F9DDF80B0001029C
:1030100021F0FF11000A00F0FF100843CDF80B006B
:103020004FEA3040CDF80B000DF10E067088010A12
:1030300041EA0020708005E02C2903D10DF1090040
:103040006178417001208DF8740020788DF875004A
:103050000DF1770002A9552209F0ECFC0DF1750085
:103060000B2141701DA801F049F8C0B2FFF7D3BA97
:103070000120FFF7D0BA2078002803D10FF2C0005A
:10308000C046C0460120FFF7C6BA04F10802211D60
:10309000204608F08FFF0120FFF7BDBAFEF781FF41
:1030A0000120FFF7B8BAFEF7A3FF0120FFF7B3BA7C
:1030B000D6F81140D4E90223D4E90001FDF7C8F99C
:1030C0000120FFF7A8BA00002CBE0120BC73030842
:1030D000D4730308007403080C74030818740308FD
:1030E000287403084C7403085C7403086C740308A8
:1030F000787403088474030890740308A4740308A4
:10310000B8740308CC740308E0740308D480012069
:10311000FC7403080875030814750308BCE9012052
:103120004C6962726172792072616E6765206973A1
:10313000206F7665722C2052656D6F7665000000F9
:1031400051505F5245515545535400000048704757
:10315000B8D9012080B5FFF7F9FFDFF8C41C48603B
:10316000012002BD08F0ECBF2DE9F8430446002021
:1031700005460646DFF8AC1C496804F108073A69C1
:103180007B6802EB030894F90820002A15D1B8F9EE
:103190000000B8F90250B8F90460B7F86810411A95
:1031A000A8F80010B7F86A10691AA8F80210B7F862
:1031B0006C10711AA8F8041035E004F18409012A92
:1031C0001ED1B8F80010A4F88410B8F80210A9F8BD
:1031D0000210B8F80410A9F80410B4F884103A6F7B
:1031E000891AA8F80010B9F802107A6F891AA8F89D
:1031F0000210B9F80410BA6F891AA8F8041012E086
:10320000B4F88420A8F80020B9F80220A8F8022019
:10321000B9F80420A8F804208A6F3A67CA6F7A6761
:10322000D1F88010B96794F90810002951D1B8F984
:103230000010C913B1EBE03F14D0B7F96810C913FF
:10324000B1EBE03F0ED00FF6F43001F0F3F9B8F92E
:103250000000012802DBDFF8D00B01E047F6FF7029
:10326000A8F80000B8F90210C913B1EBE53F14D07B
:10327000B7F96A10C913B1EBE53F0ED00FF6C830AD
:1032800001F0D8F9B8F90200012802DBDFF8980B49
:1032900001E047F6FF70A8F80200B8F90410C9135E
:1032A000B1EBE63F70D0B7F96C10C913B1EBE63F54
:1032B0006AD00FF6A03001F0BDF9B8F9040001287A
:1032C00002DBDFF8640B01E047F6FF70A8F80400AA
:1032D0005AE0012958D1B4F98400B8F90010C91393
:1032E000B1EBE03F14D0B7F97010C913B1EBE03F78
:1032F0000ED00FF6483001F09DF9B8F90000012812
:1033000002DBDFF8240B01E047F6FF70A8F80000AD
:1033100004F18409B9F90200B8F90210C913B1EB3C
:10332000E03F14D0B7F97410C913B1EBE03F0ED0F1
:103330000FF6143001F07EF9B8F90200012802DB23
:10334000DFF8E40A01E047F6FF70A8F80200B9F9D7
:103350000400B8F90410C913B1EBE03F14D0B7F979
:103360007810C913B1EBE03F0ED00FF6E82001F062
:1033700061F9B8F90400012802DBDFF8AC0A01E0CA
:1033800047F6FF70A8F8040094F90800002804D15B
:10339000002000E0401C0328FCDBBDE8F1830000B6
:1033A0002DE9F0470746B869F96800EB01080025E8
:1033B0002E462C46A24697F90890B9F1050F03D383
:1033C000B9F10E0F40F0C880B9F1010F02D0B9F188
:1033D0000E0F02D13846FFF7C7FE97F90800002804
:1033E00006D1B7F97050B7F97260B7F9744007E0C9
:1033F000012801D00E2803D1BD6FFE6FD7F88040A1
:103400004846012804D9C01E02D00B3840F09E80E7
:10341000B9F1000F01D14FF6FF7ADFF8040A4068D6
:10342000B9F10E0F03D0484490F8840001E090F801
:103430008500401E06286AD8DFE800F004101F2A25
:103440003A465600B8F90200B8F80010AAEB01019C
:10345000B8F904203346AAEB050560E0B8F800008F
:10346000AAEB0000B8F80210AAEB0101B8F9042099
:10347000AAEB0503AAEB060551E0B8F80200AAEB97
:103480000000B8F90010B8F90420AAEB060346E0E2
:10349000B8F80000AAEB0000B8F90210B8F8042050
:1034A000AAEB0202AAEB05033546AAEB040436E0B8
:1034B000B8F90200B8F90010B8F80420AAEB02022B
:1034C0003346AAEB04042AE0B8F90000B8F8021069
:1034D000AAEB0101B8F80420AAEB02022B46AAEBE2
:1034E0000605AAEB04041AE0B8F80200AAEB0000F3
:1034F000B8F80010AAEB0101B8F80420AAEB020208
:10350000AAEB0603AAEB0505AAEB040407E0B8F949
:103510000000B8F90210B8F904202B463546B9F17D
:10352000010F04D1002600E0761C032EFCDBA8F876
:103530000000A8F80210A8F80420B9F10E0F05D178
:10354000A8F80630A8F80850A8F80A40B9F1000F0A
:1035500002D13846FFF708FE0120BDE8F0870000E1
:1035600070B404680D6816685B1E062B27D8DFE868
:1035700003F004080D11161B20000560604208606E
:103580001DE0624202606842086018E06A42026020
:103590000C6014E061420160704210600FE0056051
:1035A0000C60704210600AE068420860704210606F
:1035B00005E06B420360604208607042106070BCBE
:1035C0007047000070B582B08169C2688A1890F9AE
:1035D000081008460A2800F29880DFE800F0062A62
:1035E00074969650969696818F00B2F90240B2F981
:1035F0000450DFF82C0841689FEDC30AB2F90000BF
:1036000000EE900AF8EEE00A60EE800AC1ED000AD2
:1036100000EE904AF8EEE00A60EE800AC1ED010A81
:1036200000EE905AF8EEE00A20EE800A81ED020AE0
:103630006FE0B2F90060B2F90240B2F9045000F054
:103640008EFF90ED850ADFF8D807406800EE906A9B
:10365000F8EEE00A60EE800AC0ED030A00EE904A40
:10366000F8EEE00A60EE800AC0ED040A00EE905A1F
:10367000F8EEE00A20EE800A80ED050A49E000201D
:10368000009010680090DFF8980741689DED000AEF
:10369000B8EEC00ADFEDCD0A20EE200A81ED0C0A5B
:1036A00091ED0C0AB5EE400AF1EE10FA31D090ED32
:1036B000020AD1ED0C0A30EE200A80ED020A0188E0
:1036C000491C018025E0DFF8580741681088A1F8FF
:1036D0005A0001F25A00518841809188818018E097
:1036E000DFF83C07416801F25A001188C180518817
:1036F000018191884181D18881810AE0DFF820072A
:103700004068118880F8681003E00FF2547000F0F0
:1037100091FF012076BD70B50D46DFF8081751F80E
:1037200020400026207F002801D1304670BD607AFD
:10373000002804D0D4F8C800806880470646284690
:10374000D4F8C810C96988470546002E03D0D4F8BC
:10375000C80040688047284670BD01207047F8B512
:103760001C4692FBF1F300F29F0600F10805777802
:10377000012F17D190F908700C2F10D0502B02DABE
:10378000B2F57A7F08DB012780F89F70B0F8A2704D
:103790009F4204DA3B4602E0002780F89F70002732
:1037A000B77006E0AE68AF7E96FBF7F69E4200DA91
:1037B0003346002A18D490F908000C2804D003FBE3
:1037C00001F0A865E86501E0AA65EA65286E0028B1
:1037D00002D5EB6D181AE865E86DDFF844365B68D2
:1037E000D3F880301818E865009413460A46E96D4E
:1037F0000FF2786000F01EFF002C02D4A00700D565
:103800002C76F1BD002101664161816190F90810BB
:10381000112901D0002181777047042817D101F1C7
:103820000C008A7A012A09D0072242750F2282757C
:10383000DFF8F825CA600F214160704715224275F4
:103840001D228275DFF8E825CA601D21416070479E
:103850002DE9F243044615461E461D2C28D2274664
:10386000DFF8C00550F8278098F81C0000281FD00A
:1038700000A800F014F99DF92090B9F1000F09D4C7
:103880005FEAC97006D54B46324600994046FFF7BD
:1038900064FF36E0214600A800F01EF941462046AC
:1038A000FFF7BBFF2146284600F028F9002801D188
:1038B000002026E0002D12D198F80900012808D137
:1038C00039460FF2C45000F0B5FE49464046FFF7B6
:1038D00099FF4B46324600994046FFF740FF0123CF
:1038E0002A460099204600F07CF900F0E0F9002C0F
:1038F00006D198F80900012802D100980AF07CFC52
:103900000120BDE8F283000060F69C3A2DE9F24305
:10391000044615461E461D2C0BD22746DFF804052B
:1039200050F82780FDF740F9814698F81C000028E0
:1039300001D1002047E000A800F0B1F82146284658
:1039400000F024F9002D29D1FCF7DAFF002816D069
:1039500098F89F00002812D0FCF7D2FF4B46024691
:1039600039460FF22C5000F065FEB9F1010F02D17B
:10397000FDF708F903E000210846FDF7A8F898F8DC
:103980000900002803D131464046FFF73BFF0020E5
:10399000C8F8600088F89F0088F8A10000232A4634
:1039A0000099204600F01DF900F081F9002C09D1A2
:1039B00098F80900012805D10BF024FA012801D15B
:1039C0000AF03BFC0120BDE8F28300000AD7233C4B
:1039D0002DE9F24F044615461E461D2C27D22746D8
:1039E000DFF8400450F82780FDF7DEF8814608F143
:1039F000140A9AF80800002819D000A800F04FF81F
:103A00009DF928B0BBF1000F09D45FEACB7006D551
:103A10005B46324600994046FFF79FFE3DE005EBCE
:103A2000450008EB8000806B8068002801D50020ED
:103A300033E0DAF84C00002806D1012E04DB002028
:103A4000C8F81400CAF80400002D1AD1FCF758FF7A
:103A5000002816D098F89F00012812D1FCF750FFDB
:103A6000024639460FF2384000F0E4FDB9F1010F8B
:103A700002D1FDF787F804E02146C9B20020FDF726
:103A800026F85B46324600994046FFF768FE2A4614
:103A90000099204600F0D6F80120BDE8F28F0168B9
:103AA000C82902D1B42101607047422902D13C21CA
:103AB000016070478A1F042A02D20A210160704700
:103AC000A1F10B02092A02D21421016070470529D5
:103AD00001DA0521016070470A46D24B53F82230C3
:103AE0000F2A05D0102A03D01A2A01D01B2A04D18C
:103AF000C9B2D3F8C8209269104770472DE9F8433E
:103B000004460325C74850F8216000F028FD074609
:103B1000707A002834D106F1C808214649B23046EF
:103B2000D8F8042012689047002822D0D6F8C800A0
:103B3000406880478146EDB2012D0ED1B9F1000FEA
:103B40000BD1D6F8C800006880470FF2683000F04B
:103B500071FD0A21384600F0C5FFB9F1000F03D10D
:103B60002846451E0028E1D1B9F1000F01D10020FF
:103B70000AE0214649B23046D8F8042052689047FE
:103B8000707A401C70720120BDE8F283F8B50446DB
:103B9000A44850F821500226687A01281AD105F16C
:103BA000C807214649B228467A689268904700289B
:103BB0000AD0D5F8C80080688047002804D1304674
:103BC000461EC0B20028F4D1214649B228467A6880
:103BD000D2689047687A002801D0401E68720120A0
:103BE000F2BD18B404468F4850F824000C2C17D0AE
:103BF000112C15D00D2C13D0192C11D01A2C0FD03C
:103C00001B2C0DD000F1B8046469012B52B203D112
:103C1000236901B010BC1847636901B010BC184794
:103C2000816B012B09D11423CB60002A08D100211C
:103C300080F8B810B830416002E04FF0FF30C86043
:103C400011BC7047F8B50C461546764951F820600E
:103C50000C282BD0112829D00D2827D01A2825D0A0
:103C60001B2823D0192821D005EB450006EB80073F
:103C7000B86B8068844219D0012C17DB0FF2482002
:103C800000F0D8FC2A4652B2B86B81683046D6F8AC
:103C9000CC305B6998472A4652B221463046D6F866
:103CA000CC301B699847BDE8F14000E0F1BD70B52C
:103CB0006FF0004635465F48016804E08A68AA4212
:103CC00000DA154609688142F8D15B4C2078401C27
:103CD00020706078F021084202D0992002F0A6F905
:103CE00002F01AFA6078401C6070B54200D10025DD
:103CF0004B4E7068C567D0F8802029468A422AD08A
:103D0000002901D0002A0BD1C0F880100FF2C81092
:103D100000F090FC7068D0F8800000F067FC23E0B1
:103D200007F031FC002804D007F02DFCB0F57A7FB5
:103D30000DDD7068C16FC0F880100FF2B01000F098
:103D400079FC7068D0F8800000F050FC0CE0012095
:103D50000BF0A0F808E007F016FC7168C96F884204
:103D600002D0084600F042FC6078F021084202D000
:103D7000992002F05BF96078401E6070C0B20028A4
:103D800001D102F0C3F902F0B1FC012070BD38B5D9
:103D90000546294C2078401C20706078F0210842AC
:103DA00002D0992002F042F902F0B6F96078401C86
:103DB000607029460FF24C1000F03CFC1848406837
:103DC000C0F880501B48016805E08A68B2FBF5F234
:103DD0006A43CA6009688142F7D16078F0210842DD
:103DE00002D0992002F022F96078401E6070C0B2C3
:103DF000002801D102F08AF9BDE8314002F076BC1A
:103E00000C490A6808E01369012B01DAD3681361D1
:103E100013691B1A136112688A42F4D170470000BB
:103E200034E701202CBE01200080FFFF244D00203C
:103E300008E5012064480020984701205820697354
:103E4000206F76657200000059206973206F7665D7
:103E5000720000005A206973206F766572000000BE
:103E600055435354282564294E53000062617463FE
:103E7000682072617465203D20256420256420251A
:103E80006420256400000000416464202564000073
:103E9000534D2025642C25642C202564000000004F
:103EA0006368616E676520726174652025642C25E6
:103EB0006400000053656E736F722052655F50722C
:103EC0006F626564000000006368616E6765207260
:103ED0006174653200000000675F707453682D3EA6
:103EE0006354696D6572203D20256400675F7074BE
:103EF00053682D3E6354696D65722032203D202544
:103F0000640000006374696D6572203D20256400C3
:103F100077487047F8B50C461646012500282BD186
:103F2000C6EB0610724901EB8007386AE040C00713
:103F300008D523463A6A31460FF2743000F07AFB16
:103F40000220F2BD4FF0FF30009003462A46796808
:103F50002046FFF77DFC00280CD023463A6A314604
:103F60000FF25C3000F066FB386A2946A140084336
:103F700038622CE00220F2BD012828D1C6EB0610E1
:103F80005B4901EB8007386AE040C00708D423464C
:103F90003A6A31460FF2383000F04CFB032516E048
:103FA0004FF0FF332A4679682046FFF7AFFC002820
:103FB00007D023463A6A31460FF2243000F03AFB2C
:103FC00000E00325386A0121A14088433862284671
:103FD000F2BD01F086BE02B598B00021ADF85810D0
:103FE0008DF801100DF101010A224A7000228A7039
:103FF000CA7005218DF800108DF80100042218A95F
:104000000DF1030000F0D3F90020ADF8580000A82E
:1040100000F074F819B000BD10B40022884201D33A
:10402000421A06E00B1A334CA34202D3324A10184C
:10403000421A104610BC70470BF095BC38B5447856
:1040400085780078032824D01A2804D02C282CD076
:104050003A2833D031BD012C0CD101200DF026F9C6
:10406000012322461A210FF2882001B0BDE830401A
:1040700000F0E0BA022C28D102200DF017F902233B
:1040800022461A210FF27C2001B0BDE8304000F03A
:10409000D1BA012C19D128460BF082FC29460FF227
:1040A0007820BDE8344000F0C5BA012C0DD1294676
:1040B0000FF27020BDE8344000F0BCBA012C04D1EE
:1040C0000120BDE832400DF0D7BA31BD0DF004BB80
:1040D0000022412809D2C0EB0013054800EB830001
:1040E000006AC840C00700D5012210467047000092
:1040F000D4800120A1780F05005C260530B595B06D
:104100000446012594F90000062800F2BC80DFE88F
:1041100000F0042648647AB2B600E11C82B068461A
:10412000552208F087FC0CBC94F9021094F90100A8
:1041300001F0F7F9022809D1607801F0D6FB0025DB
:1041400061780FF2E81000F075FAA2E0032840F061
:10415000A08061780FF2DC1000F06CFA99E06078D2
:104160001A280BD1E01C01F08FFEA37AD4F80620A8
:1041700061790FF2C81000F05DFA04E02C2802D13A
:10418000E01C01F081FE94F9021094F9010001F0A5
:10419000D7FA03287DD161780FF2B81000F04AFAFF
:1041A00077E0B4F8581000A801F0B9FB9DF90400BD
:1041B00002280AD1009800B201F097FB002500996F
:1041C0000FF2981000F036FA63E0032861D10099ED
:1041D0000FF2901000F02EFA5BE00DF014FD0228B3
:1041E00009D1607801F081FB002561780FF27C1025
:1041F00000F020FA4DE003284BD161780FF27410E3
:1042000000F018FA45E0607805280CD128460DF03A
:10421000D8FD02280DD003283BD161780FF264103D
:1042200000F008FA35E002280DD10DF0E2FE022878
:10423000F1D1607801F059FB002561780FF23C1054
:1042400000F0F8F925E02F2823D10EF041F80228DC
:1042500009D1607801F049FB002561780FF22C103C
:1042600000F0E8F915E0032813D161780FF224106B
:1042700000F0E0F90DE0204601F0B6FB09E0204631
:1042800001F05FFD05E061780FF2101000F0D2F947
:104290000025284615B030BD012070470FB402201C
:1042A00004B070470120704700207047704700003D
:1042B000534D4143202564202564202564000000DF
:1042C000534D412025642025642025640000000012
:1042D000534D5243202564202564202564000000AE
:1042E000534D5220256420256420256400000000E1
:1042F0004154205249204E6F72202D2564202564A0
:1043000020256400415420524920426174202D250B
:10431000642025642025640050442055542D2564D4
:1043200000000000534C4D2025640000414C4F46D6
:1043300020256400414C4346202564004F4A482014
:10434000454C203078257820307825782030782525
:1043500078000000524C434620256400504C4F46E4
:1043600020256400504C43462025640050414F46B0
:1043700020256400504143462025640050504F469C
:1043800020256400505043462025640050534F467A
:104390002025640050534346202564004558204C96
:1043A0004D454C202564000000220EF02DB810B5BC
:1043B0000400200008F03EFB200010BD10B50400F2
:1043C00010480078002805D10F480EF060F80D481D
:1043D000012101700C480EF094F820000EF064FFEB
:1043E000040009480EF0C1F8200010BD10B504000B
:1043F00005480EF086F820000FF0B0F802480EF0E5
:10440000B4F810BDC6E9012010E7012038B504005A
:104410000D0017480078401C1549087015480078B1
:10442000002802D0A12001F001FE02F01EF9A07EBA
:10443000662802D0822001F0F9FD802080F31188E7
:1044400000BF00BF08E0382120000FF015FB8020DE
:1044500080F3118800BF00BFE06821698842F2D074
:10446000290020000FF02CFB02F040F931BD00BF05
:1044700098470120C4E9012070B504000D00012611
:10448000A07E662802D0822001F0D0FD02F0C5F89F
:1044900013480078401C12490870802080F311886E
:1044A00000BF00BFE0682169884204D229002000D3
:1044B0000FF006FB00260A484078F021084202D09F
:1044C000992001F0B3FD06484078002802D1002071
:1044D00080F3118802F00AF93000C0B270BD00BF4D
:1044E0009847012038B505000C0094F85000642866
:1044F00002D0802001F09AFD02F08FF8802080F336
:10450000118800BF00BFA0692843A061207C10F083
:10451000F800082806D1E069A169084202D020000D
:1045200002F024F907484078F021084202D099208F
:1045300001F07CFD03484078002802D1002080F380
:10454000118831BD9847012010B5DFF8D44A4FF4E7
:104550000E720021204600F0FBFD204610BDDFF862
:10456000C00A704710B5FFF7EFFF044600231A4654
:104570001146084600F014FBC046C04606F011FB89
:104580000A21204600F03FF806F0B5FE06F070FA6A
:10459000204600F0A5FA204600F018F8DFF8840A5B
:1045A000006806F0B6FC204600F0C2F900F0B8FB47
:1045B00000F044FA00206072A072E07220730120C3
:1045C00060730020E076A073012010BD10B5044692
:1045D000DFF8540A06F0FFFB0120607110BD10B532
:1045E000044606F014FD0120A07110BD80B507F04F
:1045F00003F8012002BD10B50446E07907F0EAF89F
:104600000121217010BD70B504460025E679E171E5
:10461000FFF7F1FF002807D02046FFF7D7FF20461D
:10462000FFF7DDFF012503E0E6712046FFF7E3FF1A
:10463000284670BD0EB470B5C1B0054600A84FF451
:104640008071FFF7B1FEFFF78AFF044645AB2A46AB
:104650004FF4807100A80FF09FFA00A80FF0BAFA8B
:10466000451C00A82818002100F8011CDFF8BC69CF
:104670003078401C30707078F021084202D09920C8
:1046800001F0D4FC01F048FD7078401C7070207F70
:104690002818B0F5FA7F10DA207F002803D0207F99
:1046A00000190A2101772A4600A9207F00191D3030
:1046B000FFF77DFE207F281820777078F0210842D0
:1046C00002D0992001F0B2FC7078401E7070C0B228
:1046D000002801D101F01AFD02F008F841B070BCC9
:1046E0005DF810FB80B5FFF73AFF00F5087002BDDA
:1046F00010B50446FFF733FF00F50870214610227D
:10470000BDE8104008F0A6B980B5FFF728FF00F516
:104710000C7002BD80B5FFF722FF00F2312002BD10
:1047200080B5FFF71CFF002180F8301280F83112AD
:1047300001BDDFF8B408DFF8F0180160704710B56C
:104740000446FFF70CFFD0E9042310461946224621
:1047500001F046FC00F0010011F0000101D1002839
:104760000ED0DFF8CC482068401C20601E2807DBF4
:104770000FF6CC00FFF75EFF07F0A4F800202060E2
:1047800010BDDFF8AC080021016070472DE9F84347
:1047900005460E4617464FF00208DFF8904860784D
:1047A000F021084202D0992001F040FC01F0B4FC55
:1047B0006078401C60709DF80000401E8DF800007D
:1047C00017F8019B2846FFF7B4FF00AB4A4639466D
:1047D000304607F0B1F8002812D06078F021084286
:1047E00002D0992001F022FC6078401E6070C0B2B7
:1047F000002801D101F08AFCFFF7C3FF01201FE070
:104800005FFA88F8424629460FF64800FFF712FF84
:104810004046A0F101080028D7D16078F021084275
:1048200002D0992001F002FC6078401E6070C0B296
:10483000002801D101F06AFC2846FFF780FF002024
:10484000BDE8F2832DE9F04704460D4616461F46A3
:10485000DFF89C87089888F80000DFF8D09799F86F
:104860000100F021084202D0992001F0DFFB01F0A5
:1048700053FC99F80100401C89F801002046FFF71D
:1048800058FF4FF0020A434632463946284607F0A1
:1048900009F9002815D099F80100F021084202D04A
:1048A000992001F0C3FB99F80100401E89F801002E
:1048B000C0B2002801D101F029FCFFF762FF0120FE
:1048C00022E05FFA8AFA524621460FF29470FFF70F
:1048D000B1FE5046A0F1010A0028D4D199F8010098
:1048E000F021084202D0992001F0A0FB99F80100C4
:1048F000401E89F80100C0B2002801D101F006FC79
:104900002046FFF71CFF0020BDE8F08780B5114668
:10491000029A184606F0DCFA012002BD80B5104666
:104920005A1E92B20178401C06F0B2FA012002BD74
:1049300070B52DED028B82B00446DFF8B806C4F8DE
:104940001402FFF70CFE012100F0CCF801200090CA
:1049500001AB8022D0210020FFF7D8FF0FF2247591
:104960000FF208769DF8043040F23D223146284689
:10497000FFF760FE9DF80400D02803D0D12801D0B5
:10498000D22808D1022084F812020FF21070FFF72B
:1049900051FE012030E00120009001AB8F221B214D
:1049A0000020FFF7B3FF9DF804304FF41272314638
:1049B0002846FFF73FFE9DF804109FEDB18A692954
:1049C00009D1012084F8120284ED858AD3A0FFF773
:1049D00031FE012010E00FF2CC60FFF72BFE022029
:1049E00084F81202012084F8120284ED858A0FF205
:1049F000D060FFF71FFE012002B0BDEC028B70BD3E
:104A000030B587B0044600A80FF2D061182208F034
:104A100021F8FFF7A4FD90F8120200A901EBC000F5
:104A2000255CFFF79CFD2B46224690F812120FF2F0
:104A3000C460FFF7FFFD284607B030BD0FF0ACBEE5
:104A40002DE9F843054602264FF00008DFF89C9553
:104A500016E03046461EC0B2002814D1002C0CD1FE
:104A6000D5E9046701200021424610F005F826EA46
:104A7000000027EA0101C5E90401022608F1010846
:104A8000B8F11D0F18DA59F82800D0F8C8000068EE
:104A900080470446012CDCD1D5E9046701200021C0
:104AA00042460FF0E9FF30433943C5E9040159F8A4
:104AB000280001210177D1E7D5E90401002901D1BE
:104AC000032807D0002901D1022803D0002905D1ED
:104AD000012803D140F48050C5E90401BDE8F18309
:104AE00007F023B9DFF84405026A036A00BF00BF7C
:104AF00000BF00BF00BF9B1A8B42F6DB70474172BC
:104B000030B597B0FBF740FB0446FFF728FD05469C
:104B100000A85C21FFF748FC0020ADF858008DF894
:104B200001000DF101000A21417000218170C17066
:104B3000697A00290DD0002C18D000218DF80010C2
:104B400005218DF801100B21417000A8FFF7D6FA5E
:104B50000CE0002C0AD001218DF8001005218DF801
:104B600001100B21417000A8FFF7C8FA17B030BD43
:104B700007F04EB907F056B902210120F8E70221EB
:104B80000120F7E701210846F2E701210846F1E795
:104B900007F052B910B50446FFF7E1FC447610BDAA
:104BA0002DE9F04782B00C4615462F462646804632
:104BB0004FF47A714FF03C0C4FF4616918FB09F225
:104BC00016FB0C22BA1801FB0232DFF82CE49EF926
:104BD00000A01AFB09F99EF901A01AFB0C9C9EF992
:104BE00002904CFA89FCBEF9039001FB0C919EF8EF
:104BF00008C0BCF1000F22D144EA00012943194347
:104C000002D001218EF808108EF80000B8F1000FD4
:104C100004D59EF8000018308EF800008EF8014090
:104C20008EF80250AEF8033000933B4632469EF9B0
:104C300000100FF20850FFF7FDFCBDE8F38791422A
:104C40000DD3A1EB020CACF2D17CDFF8E893CC459C
:104C5000DAD30FF2C44002B0BDE8F047EAE4D3D2A1
:104C6000A2EB010CACF2D179DFF8C8A3D145CBD3CC
:104C700063460FF2B44002B0BDE8F047DAE400004A
:104C80007922A03AF8B5070042D0FBF7A7FB04460B
:104C90000D46DFF86463D6E90401002901D100283C
:104CA00003D0201A65EB010103E04FF47A707843DA
:104CB0000021B6F803704FF47A7200230FF010FF52
:104CC000C019A6F8030000B2B0F57A7F06DBA0F5A4
:104CD0007A70A6F80300B078401CB07096F9020014
:104CE0003C2804DB3C38B0707078401C707096F93A
:104CF00001003C2804DB3C3870703078401C307078
:104D000096F90000182801DB00203070C6E9044540
:104D1000F1BDB949052207F08DBE000053544D0086
:104D2000B6480021017041701E22B54800F010BA4B
:104D30003FB400210120B14A1278002A0CD12CE0A6
:104D40005C68019DAC4224D11B89BDF80840A34298
:104D50001FD10020491CC9B291421EDAC1EBC10328
:104D6000A74C04EB43039DF80340DD78A54213D123
:104D7000002CE5D09C88BDF80450AC4209D1DC88F9
:104D8000BDF80650AC4204D11B89BDF80840A342CF
:104D9000DFD000F00100DDE7012004B030BC704737
:104DA0007FB40020014626E0C0EBC0025400944DC1
:104DB00066193C224FF46163645D757812FB05F55A
:104DC00013FB0454B57864199DF800509DF80160F8
:104DD00012FB06F213FB05229DF8023052FA83F211
:104DE000A24201D2874B9A18121BB2F5966F00D9D6
:104DF000491C401CC0B2814A13789842D4DBC9B226
:104E00008B4202D20020107001E0581A10707FBC53
:104E100070472DE9FF419DF80340022C5EDA00A89F
:104E20000FC8FFF785FF012858D100A80FC8FFF76A
:104E3000B7FF9DF802509DF80160714FDFF8BC810B
:104E400098F80000032825D13C214FF461603A789E
:104E50007B7811FB03F310FB0232BB78D2189DF86C
:104E6000003011FB06F110FB031050FA85F0904260
:104E700001D264490818811AB1F5966F02D94FF42E
:104E8000966000E0801AA8F80200FFF749FF0120B1
:104E900088F8010098F80000C0EBC00149009DF8B7
:104EA0000020CA55C9194E708D70CC70BDF808200D
:104EB000002C09D1019B4B600A81BDF80A204A8170
:104EC000BDF80C208A8106E0BDF804308B80BDF867
:104ED0000630CB800A81401C88F80000BDE8FF81C5
:104EE0004649487800224A707047252200215248DE
:104EF00000F02EB91CB500A8FFF70BFF4E4C252281
:104F00000021204600F024F99DF80000A07604F26C
:104F10001A009DF8011041709DF802108170FF2168
:104F2000817213BD70B52DED028B044620680028F8
:104F300005D16068002802D1A068002849D0A08966
:104F4000B0F57A7F45DA304DA0680FF041FE2F4A68
:104F50002F4B0FF055FE286169619FED2E8B206865
:104F60000FF036FE53EC182B0FF04AFE28606960F4
:104F700060680FF02DFE53EC182B0FF041FEA86077
:104F8000E960A089288305F11806A07BB070E07B5A
:104F9000F070207C3071607C7071608A00EE100AC5
:104FA000B8EE400A10EE100A0FF0FCFE1B4A234B2D
:104FB0000FF026FE0FF01EFFC5F81E00A08A7081BC
:104FC000A07D307310F0FBF9BDEC028BBDE87040A2
:104FD0008BE710F0F2F9BDEC028BBDE8704089E779
:104FE0000949252207F026BD584901202CBE012081
:104FF00099E9012058A08B3A68E6012000E90120D8
:1050000014E401208051010098E40120FCA9F1D2B0
:105010004D62503F8DEDB5A0F7C6B03E3BDF4F8DE2
:10502000A0BE01207449012000540040984701208F
:1050300004E901205F4C2605C0E40120976EA23FE1
:10504000233E496E6974696C61697A65204932430F
:105050000000000049574520256420256400000019
:1050600049524520256420256400000053485F48CC
:10507000415F436865636B364178697353656E734E
:105080006F720000257328256429203A2072656715
:10509000203D205B3078253032785D00426F7363AD
:1050A0006800000057484F414D49206661696C20F7
:1050B0003A207265675B3078253032785D000000F9
:1050C000556E6B6E6F776E203661786973207365ED
:1050D0006E736F7221212121000000000001020384
:1050E0000407060500010203040706050300010288
:1050F0000504070665364178697353656E736F72F0
:105100002825642920446F74282564292041786962
:10511000732825642900000041542D5365745453AD
:10512000312025642025640041542D536574545367
:1051300032202564202564202564000041542D532D
:105140006574542025643A25643A25642E2564004C
:1051500010B5040010000A000100200010F092FCBD
:10516000200010BD70B5DFF8844BFDF7EFFFE06461
:1051700010F0BCFCFEF7CCFE2065002517E04FF0D8
:10518000FF30C876DFF8680B4862DFF8680B88628A
:10519000DFF8642BCA62DFF8642B0A63DFF8602B48
:1051A0004A638863206D3018806B80476D1C412DE9
:1051B00080F2B581206DC5EB05118E0000213154C0
:1051C000311800224A700122CA7600228A764FF0F6
:1051D000FF324A6000228A700A62CA702A46921E12
:1051E0003E2ACCD8DFE812F04B0040005C015300AF
:1051F0005A00650087003F003F003F003F003F002E
:105200003F00900099003F003F003F003F00A10099
:105210003F00AA003F006101BB003F0005011001F3
:105220003F00D300DB00E400EC00FD003F003F0046
:105230003F003F003F003F003F003F001C013101A5
:105240003F00480175007F0053016C01C7003F001B
:10525000B3003D013F003F0092016D007D018A01D6
:105260008201740129018AE7DFF8301CC0F8EC10D4
:10527000012180F8CE107C303C21C16392E700F11F
:105280007C01DFF81C2C4A631421C1678AE7EC30EB
:10529000DFF8101C81671421416483E700F5B671C3
:1052A000DFF8042C4A6301228A753C21C0F86C1196
:1052B00078E700F5B671DFF8F40B08673C20C863A7
:1052C00070E700F69C50DFF8E81B01673C21C163E2
:1052D00068E700F63C30DFF8DC1BC1630121817711
:1052E0003C2181605EE700F63C30DFF8CC1B816733
:1052F000B421416456E7DFF8C41BC0F8181200F56A
:10530000B670142181674DE700F56271DFF8B02BAC
:105310004A63B421C0F8881344E700F56270DFF8EF
:10532000A41B01673C21C1633CE700F59E61DFF8E7
:10533000982B4A633C21C0F8F01433E7DFF88C1B4C
:10534000C0F89C1500F59E603C2181672AE700F6B5
:105350006840DFF87C1B81673C21416422E700F252
:105360001460DFF8701BC1630721C17701218177C9
:105370003C21816016E7DFF8601BC0F8681C012142
:1053800080F84A1C00F6BC30B42181670AE700F2BD
:105390000470DFF8481B81671421416402E700F2C2
:1053A0008471DFF83C2B4A631421C0F88417F9E6B6
:1053B00000F28470DFF82C1B01671421C163F1E651
:1053C000FFF7CDF890F81202401E012804D8206D96
:1053D000DFF8141BC0F83018206D0A21C0F8FC1744
:1053E000E0E6DFF8081BC0F86C181421C0F8381884
:1053F000D8E600F29461DFF8F82A4A6301228A7540
:105400001421C0F89416CDE6DFF8E81AC0F80417A6
:10541000012180F8E61600F294603C21C163C1E6E8
:1054200000F65421DFF8D02A4A630322CA7501220C
:105430008A753C21C0F8541AB4E600F6C860DFF85B
:10544000BC1A01671421C163ACE6DFF8B41AC0F8D6
:10545000C41A012180F8A61A00F654203C21C16329
:10546000A0E600F6E841DFF89C2A4A6301228A752B
:105470001421C0F8E81C95E6DFF88C1AC0F83C1B34
:10548000012180F81E1B1421C0F8081B8AE600F6D3
:10549000BC31DFF8782A4A631421C0F8BC1B81E6CE
:1054A000EC30DFF86C1AC1637CE6DFF8681AC0F8EC
:1054B0001416012180F8F6153C21C0F8E01571E6BC
:1054C00000F6BC30DFF8501A01671421C16369E6A9
:1054D00000F6C861DFF8442A4A631421C0F8C81EE8
:1054E00060E6DFF83C1AC0F8481E5BE600F648604C
:1054F000DFF8301A81673C21416453E600F64860CA
:10550000DFF8241AC1633C2181604BE600F69C5110
:10551000DFF8182A4A631421C0F89C1D42E60120D6
:1055200070BD0CB42DE9F04393B006460F4601243C
:1055300035461A2D42D02C2D40D0C5EB05104FEA30
:105540008008DFF8A8970B2F18D1D9F850004044F5
:105550004178002912D090F91B20012A0EDB9142DC
:105560000CDB304600F082F90446D9F85000404484
:10557000002141700FF6C410FFF75CF8D9F8500015
:1055800018F8001000294FD108EB00014A78002AD2
:105590004AD1002208F80020104648701AA983B0AA
:1055A0006846582207F056FA0EBC304600F084F8E0
:1055B000022834D0032837D1032435E00B2F15D12E
:1055C000C5EB05104FEA8008DFF82097D9F85000A6
:1055D000404490F91B20012A08DB4078904205DB0B
:1055E0000FF66010FFF726F8022060E01A2D04D1B4
:1055F0003846C0B20AF063FF05E02C2D03D13846CF
:10560000C0B210F015FB1AA983B06846582207F003
:1056100021FA0EBC304600F04FF8022801D10220DA
:1056200045E0032800D103240A2F0DD1DFF8BC96F2
:10563000D9F85000C5EB05114FEA810818F80010A1
:10564000491C08F8001017E00B2F15D1DFF89C96C5
:10565000032D07D1D9F8500090F8B500002801D1EA
:105660000AF0C9F8C5EB05104FEA8008D9F85000D8
:1056700040444178491C4170DFF87096D9F85000D9
:10568000D9F84C10C5EB05124FEA8208D1E91C236A
:10569000CDE90223C96E009108EB00014B7818F8A0
:1056A000002029460FF6A800FEF7C4FF204613B0DD
:1056B000BDE8F0035DF80CFB0EB42DE9F04193B0AA
:1056C00005460124C0EB00118F00DFF82066D6F8F4
:1056D00050801A2801D02C2808D117F8080000287B
:1056E00009D107EB08004078002804D107EB080037
:1056F00000218170016219A984B06846582207F020
:10570000A9F90FBC47447F6AB847022801D102209B
:1057100011E0032801D103240CE0D6F84C80D8E92D
:105720001C67204600212A460FF0A6F93043394372
:10573000C8E91C01204613B0BDE8F0015DF810FB7C
:105740002DE9F84304460D4601262746C7EB07100E
:105750004FEA8008DFF89495D9F850001A2F4ED000
:105760002C2F4CD04044417802290BDB90F91B20B0
:10577000012A07DB1346994204DB42700FF2E47002
:10578000FEF758FFD9F8500018F80010002904D18E
:1057900008EB00025278002A65D02A460A2A09D16D
:1057A000002903D0491E08F8001017E0002108F86E
:1057B000001013E00B2A11D108EB00014A78002AEF
:1057C00002D0521E4A7001E000224A70032F05D118
:1057D00090F8B500002801D10AF01CF8D9F8500063
:1057E00018F8001000293ED14044407800283AD1F2
:1057F000204600F03BF8032835D1032633E018F8A3
:105800000010002904D108EB00025278002A2AD0A7
:105810002A460A2A09D1002903D0491E08F8001097
:105820000EE0002108F800100AE00B2A08D14044DD
:105830004178002902D0491E417001E000214170E9
:105840001A2F04D12846C0B20AF039FE05E02C2FE9
:1058500003D12846C0B210F0EBF9204600F006F85C
:10586000032800D103263046BDE8F2832DE9F0413C
:1058700007460126B846C8EB08108500DFF86C44DF
:10588000206D2818806A8047032800D10326B8F1CC
:105890002C0F07D1206D295C00290AD128184078E7
:1058A000002806D1384640B200F07BF9032800D129
:1058B0000326206D295C002914D12818417800297D
:1058C00010D1002181700162D4F84C80D8E91C45C8
:1058D00001203A460FF0D0F824EA000025EA010141
:1058E000C8E91C013046BDE8F08138B50446C4EB78
:1058F00004108000DFF8F453296D00224254401850
:10590000114641702046FFF7B1FFE86CD0E91C2337
:1059100021460FF25860FEF78DFE012032BD2DE9C1
:10592000F041B6B004460E46B6B201208DF86400D0
:10593000DFF8B8531AA8E96C6C2207F08BF81795BA
:105940001AA984B068466C2207F084F80FBC00F0F6
:10595000D9F900270BE0032803D1189703208DF80D
:105960006400286D4044002181707F1C7FB2412F6C
:105970002ADAEA6CD2E91C013A4600F031FB00F069
:10598000010011F0000101D10028EED0C7EB071093
:105990004FEA8008286D404441680029E5D48278A8
:1059A000521C8270D2B2724389B28A42DDDBC06A75
:1059B00080470228CFD1189702208DF86400DDE9D6
:1059C0001801C4E9000103E0DDE91801C4E90001A0
:1059D00036B0BDE8F0810021401F42F20C729042C7
:1059E00000D20121084670472DE9F04383B00446F8
:1059F000002001900422E11C01A8FEF7D8FC617888
:105A0000BA4E376D3C2515FB01704068019A9042F3
:105A100004D10FF26850FEF70DFE68E01046FFF764
:105A2000DAFF002809D16178019B15FB01704268FB
:105A30000FF25450FEF7FEFD59E0DFF8F4743868B9
:105A4000D0F8008025E090F908906078316D15FB62
:105A50000010006A20FA09F0C00717D54FF0FF3098
:105A600000900346012201994846FDF7F1FE40B23D
:105A700000280BD1617801980090306D15FB010072
:105A800043684A460FF21450FEF7D4FD4046D0F862
:105A90000080B842D7D13868D0F800801FE090F974
:105AA0000890086A20FA09F0C00715D54FF0FF33B7
:105AB000012249684846FDF729FF40B200280BD172
:105AC000617801980090306D15FB010043684A46EB
:105AD0000FF2E040FEF7AEFD4046D0F8008061785E
